{
  "contractName": "ToDoList",
  "abi": [
    {
      "constant": true,
      "inputs": [
        {
          "name": "",
          "type": "uint256"
        }
      ],
      "name": "tasks",
      "outputs": [
        {
          "name": "id",
          "type": "uint256"
        },
        {
          "name": "title",
          "type": "string"
        },
        {
          "name": "content",
          "type": "string"
        },
        {
          "name": "completed",
          "type": "bool"
        }
      ],
      "payable": false,
      "stateMutability": "view",
      "type": "function",
      "signature": "0x8d977672"
    },
    {
      "constant": true,
      "inputs": [],
      "name": "taskCount",
      "outputs": [
        {
          "name": "",
          "type": "uint256"
        }
      ],
      "payable": false,
      "stateMutability": "view",
      "type": "function",
      "signature": "0xb6cb58a5"
    },
    {
      "inputs": [],
      "payable": false,
      "stateMutability": "nonpayable",
      "type": "constructor",
      "signature": "constructor"
    },
    {
      "anonymous": false,
      "inputs": [
        {
          "indexed": false,
          "name": "id",
          "type": "uint256"
        },
        {
          "indexed": false,
          "name": "title",
          "type": "string"
        },
        {
          "indexed": false,
          "name": "content",
          "type": "string"
        },
        {
          "indexed": false,
          "name": "completed",
          "type": "bool"
        }
      ],
      "name": "TaskCreated",
      "type": "event",
      "signature": "0x1f1dc866a3d68607b66a89eaa8e2ebf7a04f8ed36bd9e3d5139ca4ce0d554155"
    },
    {
      "anonymous": false,
      "inputs": [
        {
          "indexed": false,
          "name": "id",
          "type": "uint256"
        },
        {
          "indexed": false,
          "name": "completed",
          "type": "bool"
        }
      ],
      "name": "TaskCompleted",
      "type": "event",
      "signature": "0xe21fa966ca5cd02748c0752352d18c48165e61cb55b4c29cccf924b5a95fcff1"
    },
    {
      "constant": false,
      "inputs": [
        {
          "name": "_title",
          "type": "string"
        },
        {
          "name": "_content",
          "type": "string"
        }
      ],
      "name": "createTask",
      "outputs": [],
      "payable": false,
      "stateMutability": "nonpayable",
      "type": "function",
      "signature": "0x292a4585"
    },
    {
      "constant": false,
      "inputs": [
        {
          "name": "_id",
          "type": "uint256"
        }
      ],
      "name": "toggleCompleted",
      "outputs": [],
      "payable": false,
      "stateMutability": "nonpayable",
      "type": "function",
      "signature": "0x455f5024"
    }
  ],
  "bytecode": "0x60806040526000805534801561001457600080fd5b506100986040805190810160405280600d81526020017f44656661756c74205469746c65000000000000000000000000000000000000008152506040805190810160405280601781526020017f53746f702070726f6372617374696e6174696e67203b2900000000000000000081525061009d640100000000026401000000009004565b6102e7565b6000805460019081018083556040805160808101825282815260208082018881528284018890526060830187905293865284815291909420845181559151805192936100f19390850192919091019061024c565b506040820151805161010d91600284019160209091019061024c565b5060608201518160030160006101000a81548160ff0219169083151502179055509050507f1f1dc866a3d68607b66a89eaa8e2ebf7a04f8ed36bd9e3d5139ca4ce0d5541556000548383600060405180858152602001806020018060200184151515158152602001838103835286818151815260200191508051906020019080838360005b838110156101aa578181015183820152602001610192565b50505050905090810190601f1680156101d75780820380516001836020036101000a031916815260200191505b50838103825285518152855160209182019187019080838360005b8381101561020a5781810151838201526020016101f2565b50505050905090810190601f1680156102375780820380516001836020036101000a031916815260200191505b50965050505050505060405180910390a15050565b828054600181600116156101000203166002900490600052602060002090601f016020900481019282601f1061028d57805160ff19168380011785556102ba565b828001600101855582156102ba579182015b828111156102ba57825182559160200191906001019061029f565b506102c69291506102ca565b5090565b6102e491905b808211156102c657600081556001016102d0565b90565b610907806102f66000396000f3fe6080604052600436106100615763ffffffff7c0100000000000000000000000000000000000000000000000000000000600035041663292a45858114610066578063455f5024146101a25780638d977672146101cc578063b6cb58a5146102e6575b600080fd5b34801561007257600080fd5b506101a06004803603604081101561008957600080fd5b8101906020810181356401000000008111156100a457600080fd5b8201836020820111156100b657600080fd5b803590602001918460018302840111640100000000831117156100d857600080fd5b91908080601f016020809104026020016040519081016040528093929190818152602001838380828437600092019190915250929594936020810193503591505064010000000081111561012b57600080fd5b82018360208201111561013d57600080fd5b8035906020019184600183028401116401000000008311171561015f57600080fd5b91908080601f01602080910402602001604051908101604052809392919081815260200183838082843760009201919091525092955061030d945050505050565b005b3480156101ae57600080fd5b506101a0600480360360208110156101c557600080fd5b50356104bc565b3480156101d857600080fd5b506101f6600480360360208110156101ef57600080fd5b50356106ce565b60405180858152602001806020018060200184151515158152602001838103835286818151815260200191508051906020019080838360005b8381101561024757818101518382015260200161022f565b50505050905090810190601f1680156102745780820380516001836020036101000a031916815260200191505b50838103825285518152855160209182019187019080838360005b838110156102a757818101518382015260200161028f565b50505050905090810190601f1680156102d45780820380516001836020036101000a031916815260200191505b50965050505050505060405180910390f35b3480156102f257600080fd5b506102fb61080f565b60408051918252519081900360200190f35b60008054600190810180835560408051608081018252828152602080820188815282840188905260608301879052938652848152919094208451815591518051929361036193908501929190910190610815565b506040820151805161037d916002840191602090910190610815565b5060608201518160030160006101000a81548160ff0219169083151502179055509050507f1f1dc866a3d68607b66a89eaa8e2ebf7a04f8ed36bd9e3d5139ca4ce0d5541556000548383600060405180858152602001806020018060200184151515158152602001838103835286818151815260200191508051906020019080838360005b8381101561041a578181015183820152602001610402565b50505050905090810190601f1680156104475780820380516001836020036101000a031916815260200191505b50838103825285518152855160209182019187019080838360005b8381101561047a578181015183820152602001610462565b50505050905090810190601f1680156104a75780820380516001836020036101000a031916815260200191505b50965050505050505060405180910390a15050565b6104c4610893565b60008281526001602081815260409283902083516080810185528154815281840180548651600296821615610100026000190190911695909504601f8101859004850286018501909652858552909491938584019390929083018282801561056d5780601f106105425761010080835404028352916020019161056d565b820191906000526020600020905b81548152906001019060200180831161055057829003601f168201915b5050509183525050600282810180546040805160206001841615610100026000190190931694909404601f810183900483028501830190915280845293810193908301828280156105ff5780601f106105d4576101008083540402835291602001916105ff565b820191906000526020600020905b8154815290600101906020018083116105e257829003601f168201915b50505091835250506003919091015460ff161515602091820152606082018051159052600084815260018083526040909120835181558383015180519495508594919361065193850192910190610815565b506040820151805161066d916002840191602090910190610815565b50606091820151600391909101805460ff191691151591909117905581519082015160408051928352901515602083015280517fe21fa966ca5cd02748c0752352d18c48165e61cb55b4c29cccf924b5a95fcff19281900390910190a15050565b600160208181526000928352604092839020805481840180548651600296821615610100026000190190911695909504601f8101859004850286018501909652858552909491939290919083018282801561076a5780601f1061073f5761010080835404028352916020019161076a565b820191906000526020600020905b81548152906001019060200180831161074d57829003601f168201915b50505060028085018054604080516020601f60001961010060018716150201909416959095049283018590048502810185019091528181529596959450909250908301828280156107fc5780601f106107d1576101008083540402835291602001916107fc565b820191906000526020600020905b8154815290600101906020018083116107df57829003601f168201915b5050506003909301549192505060ff1684565b60005481565b828054600181600116156101000203166002900490600052602060002090601f016020900481019282601f1061085657805160ff1916838001178555610883565b82800160010185558215610883579182015b82811115610883578251825591602001919060010190610868565b5061088f9291506108be565b5090565b6080604051908101604052806000815260200160608152602001606081526020016000151581525090565b6108d891905b8082111561088f57600081556001016108c4565b9056fea165627a7a7230582000a0f150f15f0564671083087b7074276cc1ce69cfa4c7259611dbc8d701e25f0029",
  "source": "pragma solidity ^0.5.0;\n\ncontract ToDoList {\n  uint public taskCount = 0;\n\n  struct Task {\n    uint id;\n    string title;\n    string content;\n    bool completed;\n  }\n\n  mapping(uint => Task) public tasks;\n\n  event TaskCreated (\n    uint id,\n    string title,\n    string content,\n    bool completed\n  );\n\n  event TaskCompleted (\n    uint id,\n    bool completed\n  );\n\n  constructor () public {\n    createTask('Default Title', 'Stop procrastinating ;)');\n  }\n\n  function createTask (string memory _title, string memory _content) public {\n    taskCount++;\n    tasks[taskCount] = Task(taskCount, _title, _content, false);\n    emit TaskCreated(taskCount, _title, _content, false);\n  }\n\n  function toggleCompleted (uint _id) public {\n    Task memory _task = tasks[_id];\n    _task.completed = !_task.completed;\n    tasks[_id] = _task;\n    emit TaskCompleted(_task.id, _task.completed);\n  }\n}\n",
  "sourcePath": "/home/visnia/websites/ethereum-hello-world/contracts/ToDoList.sol",
  "compiler": {
    "name": "solc",
    "version": "0.5.0+commit.1d4f565a.Emscripten.clang"
  },
  "schemaVersion": "3.0.1",
  "updatedAt": "2023-10-29T20:51:34.283Z",
  "devdoc": {
    "methods": {}
  },
  "userdoc": {
    "methods": {}
  }
}