{
  "contractName": "ToDoList",
  "abi": [
    {
      "constant": true,
      "inputs": [
        {
          "name": "",
          "type": "uint256"
        }
      ],
      "name": "tasks",
      "outputs": [
        {
          "name": "id",
          "type": "uint256"
        },
        {
          "name": "title",
          "type": "string"
        },
        {
          "name": "content",
          "type": "string"
        },
        {
          "name": "completed",
          "type": "bool"
        }
      ],
      "payable": false,
      "stateMutability": "view",
      "type": "function"
    },
    {
      "constant": true,
      "inputs": [],
      "name": "taskCount",
      "outputs": [
        {
          "name": "",
          "type": "uint256"
        }
      ],
      "payable": false,
      "stateMutability": "view",
      "type": "function"
    },
    {
      "inputs": [],
      "payable": false,
      "stateMutability": "nonpayable",
      "type": "constructor"
    },
    {
      "constant": false,
      "inputs": [
        {
          "name": "_title",
          "type": "string"
        },
        {
          "name": "_content",
          "type": "string"
        }
      ],
      "name": "createTask",
      "outputs": [],
      "payable": false,
      "stateMutability": "nonpayable",
      "type": "function"
    }
  ],
  "bytecode": "0x60806040526000805534801561001457600080fd5b506100986040805190810160405280600a81526020017f5461736b206e6f2e2031000000000000000000000000000000000000000000008152506040805190810160405280601781526020017f53746f702070726f6372617374696e6174696e67203b2900000000000000000081525061009d640100000000026401000000009004565b6101c8565b6000805460019081018083556040805160808101825282815260208082018881528284018890526060830187905293865284815291909420845181559151805192936100f19390850192919091019061012d565b506040820151805161010d91600284019160209091019061012d565b50606091909101516003909101805460ff19169115159190911790555050565b828054600181600116156101000203166002900490600052602060002090601f016020900481019282601f1061016e57805160ff191683800117855561019b565b8280016001018555821561019b579182015b8281111561019b578251825591602001919060010190610180565b506101a79291506101ab565b5090565b6101c591905b808211156101a757600081556001016101b1565b90565b610576806101d76000396000f3fe6080604052600436106100565763ffffffff7c0100000000000000000000000000000000000000000000000000000000600035041663292a4585811461005b5780638d97767214610197578063b6cb58a5146102b1575b600080fd5b34801561006757600080fd5b506101956004803603604081101561007e57600080fd5b81019060208101813564010000000081111561009957600080fd5b8201836020820111156100ab57600080fd5b803590602001918460018302840111640100000000831117156100cd57600080fd5b91908080601f016020809104026020016040519081016040528093929190818152602001838380828437600092019190915250929594936020810193503591505064010000000081111561012057600080fd5b82018360208201111561013257600080fd5b8035906020019184600183028401116401000000008311171561015457600080fd5b91908080601f0160208091040260200160405190810160405280939291908181526020018383808284376000920191909152509295506102d8945050505050565b005b3480156101a357600080fd5b506101c1600480360360208110156101ba57600080fd5b5035610368565b60405180858152602001806020018060200184151515158152602001838103835286818151815260200191508051906020019080838360005b838110156102125781810151838201526020016101fa565b50505050905090810190601f16801561023f5780820380516001836020036101000a031916815260200191505b50838103825285518152855160209182019187019080838360005b8381101561027257818101518382015260200161025a565b50505050905090810190601f16801561029f5780820380516001836020036101000a031916815260200191505b50965050505050505060405180910390f35b3480156102bd57600080fd5b506102c66104a9565b60408051918252519081900360200190f35b60008054600190810180835560408051608081018252828152602080820188815282840188905260608301879052938652848152919094208451815591518051929361032c939085019291909101906104af565b50604082015180516103489160028401916020909101906104af565b50606091909101516003909101805460ff19169115159190911790555050565b600160208181526000928352604092839020805481840180548651600296821615610100026000190190911695909504601f810185900485028601850190965285855290949193929091908301828280156104045780601f106103d957610100808354040283529160200191610404565b820191906000526020600020905b8154815290600101906020018083116103e757829003601f168201915b50505060028085018054604080516020601f60001961010060018716150201909416959095049283018590048502810185019091528181529596959450909250908301828280156104965780601f1061046b57610100808354040283529160200191610496565b820191906000526020600020905b81548152906001019060200180831161047957829003601f168201915b5050506003909301549192505060ff1684565b60005481565b828054600181600116156101000203166002900490600052602060002090601f016020900481019282601f106104f057805160ff191683800117855561051d565b8280016001018555821561051d579182015b8281111561051d578251825591602001919060010190610502565b5061052992915061052d565b5090565b61054791905b808211156105295760008155600101610533565b9056fea165627a7a72305820a89d1579f1c4b8760876b9cd292abdadae7ef4cde72b8fa48eebdd75d2639d4a0029",
  "source": "pragma solidity ^0.5.0;\n\ncontract ToDoList {\n  uint public taskCount = 0;\n\n  struct Task {\n    uint id;\n    string title;\n    string content;\n    bool completed;\n  }\n\n  mapping(uint => Task) public tasks;\n\n  constructor () public {\n    createTask('Task no. 1', 'Stop procrastinating ;)');\n  }\n\n  function createTask (string memory _title, string memory _content) public {\n    taskCount++;\n    tasks[taskCount] = Task(taskCount, _title, _content, false);\n  }\n}\n",
  "sourcePath": "/home/visnia/websites/ethereum-hello-world/contracts/ToDoList.sol",
  "compiler": {
    "name": "solc",
    "version": "0.5.0+commit.1d4f565a.Emscripten.clang"
  },
  "schemaVersion": "3.0.1",
  "updatedAt": "2023-10-29T15:10:48.488Z",
  "devdoc": {
    "methods": {}
  },
  "userdoc": {
    "methods": {}
  }
}